{
  "address": "0x5FbDB2315678afecb367f032d93F642f64180aa3",
  "abi": [
    {
      "anonymous": false,
      "inputs": [
        {
          "indexed": false,
          "internalType": "address",
          "name": "token0",
          "type": "address"
        },
        {
          "indexed": false,
          "internalType": "address",
          "name": "token1",
          "type": "address"
        },
        {
          "indexed": false,
          "internalType": "uint32",
          "name": "index",
          "type": "uint32"
        },
        {
          "indexed": false,
          "internalType": "int24",
          "name": "tickLower",
          "type": "int24"
        },
        {
          "indexed": false,
          "internalType": "int24",
          "name": "tickUpper",
          "type": "int24"
        },
        {
          "indexed": false,
          "internalType": "uint24",
          "name": "fee",
          "type": "uint24"
        },
        {
          "indexed": false,
          "internalType": "address",
          "name": "pool",
          "type": "address"
        }
      ],
      "name": "PoolCreated",
      "type": "event"
    },
    {
      "inputs": [],
      "name": "MAX_POOLS_PER_PAIR",
      "outputs": [
        {
          "internalType": "uint256",
          "name": "",
          "type": "uint256"
        }
      ],
      "stateMutability": "view",
      "type": "function"
    },
    {
      "inputs": [
        {
          "internalType": "address",
          "name": "_tokenA",
          "type": "address"
        },
        {
          "internalType": "address",
          "name": "_tokenB",
          "type": "address"
        },
        {
          "internalType": "int24",
          "name": "_tickLower",
          "type": "int24"
        },
        {
          "internalType": "int24",
          "name": "_tickUpper",
          "type": "int24"
        },
        {
          "internalType": "uint24",
          "name": "_fee",
          "type": "uint24"
        }
      ],
      "name": "createPool",
      "outputs": [
        {
          "internalType": "address",
          "name": "poolAddr",
          "type": "address"
        }
      ],
      "stateMutability": "nonpayable",
      "type": "function"
    },
    {
      "inputs": [
        {
          "internalType": "address",
          "name": "_tokenA",
          "type": "address"
        },
        {
          "internalType": "address",
          "name": "_tokenB",
          "type": "address"
        },
        {
          "internalType": "uint32",
          "name": "_index",
          "type": "uint32"
        }
      ],
      "name": "getPool",
      "outputs": [
        {
          "internalType": "address",
          "name": "poolAddr",
          "type": "address"
        }
      ],
      "stateMutability": "view",
      "type": "function"
    },
    {
      "inputs": [],
      "name": "parameters",
      "outputs": [
        {
          "internalType": "address",
          "name": "factory",
          "type": "address"
        },
        {
          "internalType": "address",
          "name": "tokenA",
          "type": "address"
        },
        {
          "internalType": "address",
          "name": "tokenB",
          "type": "address"
        },
        {
          "internalType": "int24",
          "name": "tickLower",
          "type": "int24"
        },
        {
          "internalType": "int24",
          "name": "tickUpper",
          "type": "int24"
        },
        {
          "internalType": "uint24",
          "name": "fee",
          "type": "uint24"
        }
      ],
      "stateMutability": "view",
      "type": "function"
    }
  ],
  "transactionHash": "0x0875299b072f1a771d9bcdf85c41323a2af5244ab4a54b6f086f29984007cc2d",
  "args": [],
  "numDeployments": 1,
  "solcInputHash": "e6f3973e3c1460d2283c827658d8f7cd",
  "bytecode": "0x608060405234801561001057600080fd5b5061332a806100206000396000f3fe608060405234801561001057600080fd5b506004361061004c5760003560e01c80630c2d4e4e1461005157806371c54fc9146100815780638903573014610094578063974fb76e14610120575b600080fd5b61006461005f36600461063e565b610136565b6040516001600160a01b0390911681526020015b60405180910390f35b61006461008f3660046106af565b61048f565b600280546003546004546100d8936001600160a01b039384169392831692821691600160a01b8104820b91600160b81b8204900b90600160d01b900462ffffff1686565b604080516001600160a01b03978816815295871660208701529390951692840192909252600290810b60608401520b608082015262ffffff90911660a082015260c001610078565b610128606481565b604051908152602001610078565b60006101428686610509565b60008061014f88886105d2565b6001600160a01b038083166000908152602081815260408083209385168352929052208054929450909250906064116101dd5760405162461bcd60e51b815260206004820152602560248201527f466163746f72793a20746f6f206d616e7920706f6f6c7320666f722074686973604482015264103830b4b960d91b60648201526084015b60405180910390fd5b6040805160c081018252308082526001600160a01b03868116602080850182905291871684860181905260028d810b60608701528c810b608087015262ffffff808d1660a090970187905281546001600160a01b03199081169096179091556003805490951690921790935560048054600160d01b90950262ffffff60d01b19838e16600160b81b021665ffffffffffff60b81b19938f16600160a01b026001600160b81b031990971690951795909517919091169290921792909217905590516000916102ea91869186918c918c918c91016001600160a01b039586168152939094166020840152600291820b6040840152900b606082015262ffffff91909116608082015260a00190565b60408051601f198184030181529181528151602092830120600081815260019093529120549091506001600160a01b0316156103685760405162461bcd60e51b815260206004820152601d60248201527f466163746f72793a6164647265737320616c726561647920657869737400000060448201526064016101d4565b8060405161037590610603565b8190604051809103906000f5905080158015610395573d6000803e3d6000fd5b50600082815260016020818152604080842080546001600160a01b03199081166001600160a01b038881169182179093558b8316808852878652848820938c16808952938652848820805497880181558852968590209095018054821686179055600280548216815560038054909216909155600480546001600160e81b0319169055885483519687529386019190915263ffffffff909216908401528b810b60608401528a900b608083015262ffffff891660a083015260c08201529095507fe026b1b60fa8f2d35cd0844432a7b513a5a112d8cfe2b30bc62c1c4b81373c759060e00160405180910390a15050505095945050505050565b600061049b8484610509565b6000806104a886866105d2565b6001600160a01b0380831660009081526020818152604080832093851683529290522080549294509092509063ffffffff86169081106104ea576104ea6106ff565b6000918252602090912001546001600160a01b03169695505050505050565b806001600160a01b0316826001600160a01b03160361056a5760405162461bcd60e51b815260206004820152601a60248201527f466163746f72793a206964656e746963616c206164647265737300000000000060448201526064016101d4565b6001600160a01b0382161580159061058a57506001600160a01b03811615155b6105ce5760405162461bcd60e51b8152602060048201526015602482015274466163746f72793a2061646472657373207a65726f60581b60448201526064016101d4565b5050565b600080826001600160a01b0316846001600160a01b0316106105f55782846105f8565b83835b915091509250929050565b612bdf8061071683390190565b80356001600160a01b038116811461062757600080fd5b919050565b8035600281900b811461062757600080fd5b600080600080600060a0868803121561065657600080fd5b61065f86610610565b945061066d60208701610610565b935061067b6040870161062c565b92506106896060870161062c565b9150608086013562ffffff811681146106a157600080fd5b809150509295509295909350565b6000806000606084860312156106c457600080fd5b6106cd84610610565b92506106db60208501610610565b9150604084013563ffffffff811681146106f457600080fd5b809150509250925092565b634e487b7160e01b600052603260045260246000fdfe6101406040523480156200001257600080fd5b50336001600160a01b031663890357306040518163ffffffff1660e01b815260040160c060405180830381865afa15801562000052573d6000803e3d6000fd5b505050506040513d601f19601f82011682018060405250810190620000789190620000dc565b62ffffff1660e052600290810b610100520b610120526001600160a01b0390811660c05290811660a0521660805262000168565b80516001600160a01b0381168114620000c457600080fd5b919050565b8051600281900b8114620000c457600080fd5b60008060008060008060c08789031215620000f657600080fd5b6200010187620000ac565b95506200011160208801620000ac565b94506200012160408801620000ac565b93506200013160608801620000c9565b92506200014160808801620000c9565b915060a087015162ffffff811681146200015a57600080fd5b809150509295509295509295565b60805160a05160c05160e05161010051610120516129a9620002366000396000818161034f0152818161061c0152818161118e0152611d100152600081816102a301528181610649015281816111c30152611cc301526000818161043701526106ec015260008181610410015281816109ca01528181610a0501528181610a8c01528181610ad301528181610c9d0152611af3015260008181610120015281816108af0152818161093601528181610c1101528181611aba0152611b19015260006103e901526129a96000f3fe608060405234801561001057600080fd5b50600436106101165760003560e01c806360d49d53116100a2578063c45a015511610071578063c45a0155146103e4578063d21220a71461040b578063ddca3f4314610432578063f30583991461046d578063f637731d1461047657600080fd5b806360d49d53146103715780638db791d2146103a457806390bc1693146103be57806392f026ad146103d157600080fd5b80633eaf5d9f116100e95780633eaf5d9f14610267578063461413191461028757806355b812a81461029e57806355f57510146102c557806359c4f9051461034a57600080fd5b80630dfe16811461011b578063128acb081461015f57806316c19739146101875780631a6865021461023c575b600080fd5b6101427f000000000000000000000000000000000000000000000000000000000000000081565b6040516001600160a01b0390911681526020015b60405180910390f35b61017261016d36600461259e565b61048b565b60408051928352602083019190915201610156565b610206610195366004612623565b6001600160a01b0316600090815260046020908152604091829020825160a08101845281546001600160801b03808216808452600160801b90920481169483018590526001840154169482018590526002830154606083018190526003909301546080909201829052949193909291565b604080516001600160801b039687168152602081019590955284019290925283166060830152909116608082015260a001610156565b60015461024f906001600160801b031681565b6040516001600160801b039091168152602001610156565b6000546102749060020b81565b60405160029190910b8152602001610156565b61029060035481565b604051908152602001610156565b6102747f000000000000000000000000000000000000000000000000000000000000000081565b6103116102d3366004612623565b60046020526000908152604090208054600182015460028301546003909301546001600160801b0380841694600160801b9094048116939216919085565b604080516001600160801b039687168152948616602086015292909416918301919091526060820152608081019190915260a001610156565b6102747f000000000000000000000000000000000000000000000000000000000000000081565b61038461037f366004612657565b610b84565b604080516001600160801b03938416815292909116602083015201610156565b60005461014290630100000090046001600160a01b031681565b6101726103cc36600461269c565b610d6f565b6101726103df3660046126b7565b610f86565b6101427f000000000000000000000000000000000000000000000000000000000000000081565b6101427f000000000000000000000000000000000000000000000000000000000000000081565b6104597f000000000000000000000000000000000000000000000000000000000000000081565b60405162ffffff9091168152602001610156565b61029060025481565b610489610484366004612623565b61111b565b005b600080856000036104e35760405162461bcd60e51b815260206004820152601e60248201527f616d6f756e745370656369666965642063616e6e6f74206265207a65726f000060448201526064015b60405180910390fd5b8661052e576000546001600160a01b0363010000009091048116908616118015610529575073fffd8963efd1fc6a506488495d951d5263988d266001600160a01b038616105b610560565b6000546001600160a01b036301000000909104811690861610801561056057506401000276a36001600160a01b038616115b6105ac5760405162461bcd60e51b815260206004820152601e60248201527f7371727450726963654c696d697458393620696e73756666696369656e74000060448201526064016104da565b60006040518060e0016040528088815260200160008152602001600060039054906101000a90046001600160a01b03166001600160a01b03168152602001896105f7576003546105fb565b6002545b815260200160008152602001600081526020016000815250905060006106407f0000000000000000000000000000000000000000000000000000000000000000611294565b9050600061066d7f0000000000000000000000000000000000000000000000000000000000000000611294565b905060008a1561069f57886001600160a01b0316836001600160a01b0316106106965782610698565b885b90506106c3565b886001600160a01b0316826001600160a01b0316116106be57816106c0565b885b90505b60005460015461071091630100000090046001600160a01b03169083906001600160801b03168d7f000000000000000000000000000000000000000000000000000000000000000061154f565b60c088015260a087015260808601526001600160a01b031660408501819052600080546301000000600160b81b031916630100000083021790556107539061176a565b6000805462ffffff191662ffffff9290921691909117905560c084015160015461078c9190600160801b906001600160801b03166119fc565b8460600181815161079d9190612730565b9052508a156107b35760608401516002556107bc565b60608401516003555b60008a13801561081b576107e28560c0015186608001516107dd9190612730565b611a9f565b855186906107f1908390612743565b90525060a085015161080290611a9f565b856020018181516108139190612743565b905250610866565b6108288560a00151611a9f565b8551869061083790839061276a565b90525060c08501516080860151610851916107dd91612730565b85602001818151610862919061276a565b9052505b8015158c15150361088b57845161087d908c612743565b9650846020015195506108a2565b6020850151855190975061089f908c612743565b95505b8b156109fe5760006108d37f0000000000000000000000000000000000000000000000000000000000000000611ab5565b604051637d241f3960e11b8152909150339063fa483e72906108ff908b908b908f908f906004016127bb565b600060405180830381600087803b15801561091957600080fd5b505af115801561092d573d6000803e3d6000fd5b5050505061095a7f0000000000000000000000000000000000000000000000000000000000000000611ab5565b6109648983612730565b11156109bc5760405162461bcd60e51b815260206004820152602160248201527f506f6f6c20737761703a77726f6e672062616c616e6365206f6620746f6b656e6044820152600360fc1b60648201526084016104da565b60008712156109f8576109f87f00000000000000000000000000000000000000000000000000000000000000008f6109f38a6127e5565b611ba4565b50610afe565b6000610a297f0000000000000000000000000000000000000000000000000000000000000000611ab5565b604051637d241f3960e11b8152909150339063fa483e7290610a55908b908b908f908f906004016127bb565b600060405180830381600087803b158015610a6f57600080fd5b505af1158015610a83573d6000803e3d6000fd5b50505050610ab07f0000000000000000000000000000000000000000000000000000000000000000611ab5565b610aba8883612730565b1115610ac557600080fd5b6000881215610afc57610afc7f00000000000000000000000000000000000000000000000000000000000000008f6109f38b6127e5565b505b600054600154604080518a8152602081018a9052630100000084046001600160a01b03908116828401526001600160801b03909316606082015260029390930b608084015251908f169133917fc42079f94a6350d7e6235f29174924f928cc2ac818eb64fed8004e115fbcca679181900360a00190a35050505050965096945050505050565b33600090815260046020526040812080548291906001600160801b03600160801b909104811690861611610bb85784610bcb565b8054600160801b90046001600160801b03165b60018201549093506001600160801b0390811690851611610bec5783610bfb565b60018101546001600160801b03165b91506001600160801b03831615610c8957610c407f000000000000000000000000000000000000000000000000000000000000000087856001600160801b0316611ba4565b805483908290601090610c64908490600160801b90046001600160801b0316612801565b92506101000a8154816001600160801b0302191690836001600160801b031602179055505b6001600160801b03821615610d1157610ccc7f000000000000000000000000000000000000000000000000000000000000000087846001600160801b0316611ba4565b600181018054839190600090610cec9084906001600160801b0316612801565b92506101000a8154816001600160801b0302191690836001600160801b031602179055505b604080516001600160a01b03881681526001600160801b038581166020830152841681830152905133917f38c069c2e9bc192f8cf4f1b85be791ccc0d04bb12c4ca71a3fbfe96ea0932dd5919081900360600190a250935093915050565b6000806000836001600160801b031611610dcb5760405162461bcd60e51b815260206004820152601e60248201527f5f616d6f756e74206d7573742067726561746572207468616e207a65726f000060448201526064016104da565b336000908152600460205260409020546001600160801b039081169084161115610e2e5760405162461bcd60e51b8152602060048201526014602482015273696e73756666696369656e742062616c616e636560601b60448201526064016104da565b60006040518060400160405280336001600160a01b0316815260200185610e5490612821565b600f0b90529050600080610e6783611ca4565b9150915081610e75906127e5565b9450610e80816127e5565b93506000851180610e915750600084115b15610f32573360009081526004602052604090208054869190601090610ec8908490600160801b90046001600160801b0316612850565b82546101009290920a6001600160801b0381810219909316918316021790915533600090815260046020526040812060010180548894509092610f0d91859116612850565b92506101000a8154816001600160801b0302191690836001600160801b031602179055505b604080516001600160801b03881681526020810187905290810185905233907fd4885a46e0c2f00ffdf2adb97a3909fd129dc1acccead462f7e29e6f18e54ec19060600160405180910390a2505050915091565b60008060006040518060400160405280886001600160a01b0316815260200187600f0b8152509050600080610fba83611ca4565b91509150600082136110075760405162461bcd60e51b8152602060048201526016602482015275616d6f756e7430496e74206973206e6567617469766560501b60448201526064016104da565b600081136110505760405162461bcd60e51b8152602060048201526016602482015275616d6f756e7431496e74206973206e6567617469766560501b60448201526064016104da565b604051639f382e9b60e01b81529194509250839083903390639f382e9b9061108290859085908c908c906004016127bb565b600060405180830381600087803b15801561109c57600080fd5b505af11580156110b0573d6000803e3d6000fd5b5050604080513381526001600160801b038c166020820152908101889052606081018790526001600160a01b038c1692507f011d4be6213866bff035f68967364cf69c5c01ff5bc23ff0a275f08a04381e6a915060800160405180910390a250505094509492505050565b600054630100000090046001600160a01b0316156111695760405162461bcd60e51b815260206004820152600b60248201526a125392551250531256915160aa1b60448201526064016104da565b6111728161176a565b6000805462ffffff191662ffffff9290921691909117908190557f0000000000000000000000000000000000000000000000000000000000000000600290810b91900b128015906111ec57506000547f0000000000000000000000000000000000000000000000000000000000000000600290810b91900b125b6112685760405162461bcd60e51b815260206004820152604160248201527f7371727450726963655839362073686f756c642062652077697468696e20746860448201527f652072616e6765206f66205b7469636b4c6f7765722c207469636b55707065726064820152602960f81b608482015260a4016104da565b600080546001600160a01b039092166301000000026301000000600160b81b0319909216919091179055565b60020b600060ff82901d80830118620d89e88111156112be576112be6345c3193d60e11b84611ef0565b7001fffcb933bd6fad37aa2d162d1a5940016001821602600160801b1860028216156112fa576ffff97272373d413259a46990580e213a0260801c5b6004821615611319576ffff2e50f5f656932ef12357cf3c7fdcc0260801c5b6008821615611338576fffe5caca7e10e4e61c3624eaa0941cd00260801c5b6010821615611357576fffcb9843d60f6159c9db58835c9266440260801c5b6020821615611376576fff973b41fa98c081472e6896dfb254c00260801c5b6040821615611395576fff2ea16466c96a3843ec78b326b528610260801c5b60808216156113b4576ffe5dee046a99a2a811c461f1969c30530260801c5b6101008216156113d4576ffcbe86c7900a88aedcffc83b479aa3a40260801c5b6102008216156113f4576ff987a7253ac413176f2b074cf7815e540260801c5b610400821615611414576ff3392b0822b70005940c7a398e4b70f30260801c5b610800821615611434576fe7159475a2c29b7443b29c7fa6e889d90260801c5b611000821615611454576fd097f3bdfd2022b8845ad8f792aa58250260801c5b612000821615611474576fa9f746462d870fdf8a65dc1f90e061e50260801c5b614000821615611494576f70d869a156d2a1b890bb3df62baf32f70260801c5b6180008216156114b4576f31be135f97d08fd981231505542fcfa60260801c5b620100008216156114d5576f09aa508b5b7a84e1c677de54f3e99bc90260801c5b620200008216156114f5576e5d6af8dedb81196699c329225ee6040260801c5b62040000821615611514576d2216e584f5fa1ea926041bedfe980260801c5b62080000821615611531576b048a170391f7dc42444e8fa20260801c5b600084131561153f57600019045b63ffffffff0160201c9392505050565b60008080806001600160a01b03808916908a1610158187128015906115db57600061158f896115818a620f4240612870565b62ffffff16620f42406119fc565b9050826115a8576115a38c8c8c6001611f01565b6115b5565b6115b58b8d8c6001611f8a565b95508581106115c6578a96506115d5565b6115d28c8b8386612051565b96505b5061162f565b816115f2576115ed8b8b8b6000611f8a565b6115ff565b6115ff8a8c8b6000611f01565b93508361160b896127e5565b106116185789955061162f565b61162c8b8a6116268b6127e5565b8561209d565b95505b6001600160a01b038a81169087161482156116925780801561164e5750815b6116645761165f878d8c6001611f8a565b611666565b855b9550808015611673575081155b61168957611684878d8c6000611f01565b61168b565b845b94506116dc565b80801561169c5750815b6116b2576116ad8c888c6001611f01565b6116b4565b855b95508080156116c1575081155b6116d7576116d28c888c6000611f8a565b6116d9565b845b94505b811580156116f157506116ee896127e5565b85115b15611702576116ff896127e5565b94505b81801561172157508a6001600160a01b0316876001600160a01b031614155b1561173757611730868a61288c565b935061175b565b6117588662ffffff8a1661174e8b620f4240612870565b62ffffff166120e9565b93505b50505095509550955095915050565b600073fffd8963efd1fc6a506488495d951d51639616826401000276a21983016001600160a01b031611156117aa576117aa6318521d4960e21b8361211b565b640100000000600160c01b03602083901b168060006117c882612132565b60ff169050608081106117e357607f810383901c91506117ed565b80607f0383901b91505b908002607f81811c60ff83811c9190911c800280831c81831c1c800280841c81841c1c800280851c81851c1c800280861c81861c1c800280871c81871c1c800280881c81881c1c800280891c81891c1c8002808a1c818a1c1c8002808b1c818b1c1c8002808c1c818c1c1c8002808d1c818d1c1c8002808e1c9c81901c9c909c1c80029c8d901c9e9d607f198f0160401b60c09190911c678000000000000000161760c19b909b1c674000000000000000169a909a1760c29990991c672000000000000000169890981760c39790971c671000000000000000169690961760c49590951c670800000000000000169490941760c59390931c670400000000000000169290921760c69190911c670200000000000000161760c79190911c670100000000000000161760c89190911c6680000000000000161760c99190911c6640000000000000161760ca9190911c6620000000000000161760cb9190911c6610000000000000161760cc9190911c6608000000000000161760cd9190911c66040000000000001617693627a301d71055774c8581026f028f6481ab7f045a5af012a19d003aa9198101608090811d906fdb2df09e81959a81455e260799a0632f8301901d600281810b9083900b146119ed57886001600160a01b03166119d282611294565b6001600160a01b031611156119e757816119ef565b806119ef565b815b9998505050505050505050565b60008383028160001985870982811083820303915050808411611a1e57600080fd5b80600003611a3157508290049050611a98565b6000848688096000868103871696879004966002600389028118808a02820302808a02820302808a02820302808a02820302808a02820302808a02909103029181900381900460010186841190950394909402919094039290920491909117919091029150505b9392505050565b6000600160ff1b8210611ab157600080fd5b5090565b6000807f00000000000000000000000000000000000000000000000000000000000000006001600160a01b0316836001600160a01b031614611b17577f0000000000000000000000000000000000000000000000000000000000000000611b39565b7f00000000000000000000000000000000000000000000000000000000000000005b6040516370a0823160e01b81523060048201529091506001600160a01b038216906370a0823190602401602060405180830381865afa158015611b80573d6000803e3d6000fd5b505050506040513d601f19601f82011682018060405250810190611a98919061289f565b604080516001600160a01b038481166024830152604480830185905283518084039091018152606490920183526020820180516001600160e01b031663a9059cbb60e01b1790529151600092839290871691611c0091906128b8565b6000604051808303816000865af19150503d8060008114611c3d576040519150601f19603f3d011682016040523d82523d6000602084013e611c42565b606091505b5091509150818015611c6c575080511580611c6c575080806020019051810190611c6c91906128e7565b611c9d5760405162461bcd60e51b81526020600482015260026024820152612a2360f11b60448201526064016104da565b5050505050565b600080548190611cf190630100000090046001600160a01b0316611ce77f0000000000000000000000000000000000000000000000000000000000000000611294565b85602001516121bf565b600054909250611d3e90630100000090046001600160a01b0316611d347f0000000000000000000000000000000000000000000000000000000000000000611294565b8560200151612201565b83516001600160a01b0316600090815260046020526040812060028082015490549394509092611d8691611d719161288c565b83546001600160801b0316600160801b6119fc565b90506000611db48360030154600354611d9f919061288c565b84546001600160801b0316600160801b6119fc565b600280549085015560038054908501556001546020880151919250611de4916001600160801b0390911690612235565b600180546001600160801b0319166001600160801b039283161790558216151580611e1857506000816001600160801b0316115b15611eb057825482908490601090611e41908490600160801b90046001600160801b0316612850565b92506101000a8154816001600160801b0302191690836001600160801b03160217905550808360010160008282829054906101000a90046001600160801b0316611e8b9190612850565b92506101000a8154816001600160801b0302191690836001600160801b031602179055505b82546020870151611eca916001600160801b031690612235565b83546001600160801b0319166001600160801b0391909116179092555091939092509050565b816000528060020b60045260246000fd5b6000836001600160a01b0316856001600160a01b03161115611f21579293925b81611f5557611f506001600160801b038416611f3d8787612904565b6001600160a01b0316600160601b6119fc565b611f7f565b611f7f6001600160801b038416611f6c8787612904565b6001600160a01b0316600160601b6120e9565b90505b949350505050565b6000836001600160a01b0316856001600160a01b03161115611faa579293925b600160601b600160e01b03606084901b166000611fc78787612904565b6001600160a01b031690506000876001600160a01b031611611fe857600080fd5b8361201a57866001600160a01b031661200b8383896001600160a01b03166119fc565b612015919061293a565b612046565b6120466120318383896001600160a01b03166120e9565b886001600160a01b0316808204910615150190565b979650505050505050565b600080856001600160a01b03161161206857600080fd5b6000846001600160801b03161161207e57600080fd5b8161209057611f5085858560016122fb565b611f7f85858560016123e2565b600080856001600160a01b0316116120b457600080fd5b6000846001600160801b0316116120ca57600080fd5b816120dc57611f5085858560006123e2565b611f7f85858560006122fb565b60006120f68484846119fc565b9050818061210657612106612924565b83850915611a985760010180611a9857600080fd5b816000526001600160a01b03811660045260246000fd5b600080821161214057600080fd5b507f0706060506020500060203020504000106050205030304010505030400000000601f6f8421084210842108cc6318c6db6d54be6001600160801b03841160071b84811c67ffffffffffffffff1060061b1784811c63ffffffff1060051b1784811c61ffff1060041b1784811c60ff1060031b1793841c1c161a1790565b60008082600f0b126121e0576121db6107dd8585856001611f8a565b611f82565b6121f86107dd85856121f186612821565b6000611f8a565b611f82906127e5565b60008082600f0b1261221d576121db6107dd8585856001611f01565b6121f86107dd858561222e86612821565b6000611f01565b60008082600f0b12156122a2576001600160801b03831661225583612821565b61225f9085612801565b9150816001600160801b03161061229d5760405162461bcd60e51b81526020600482015260026024820152614c5360f01b60448201526064016104da565b6122f5565b6001600160801b0383166122b68385612850565b9150816001600160801b031610156122f55760405162461bcd60e51b81526020600482015260026024820152614c4160f01b60448201526064016104da565b92915050565b6000811561236d5760006001600160a01b038411156123315761232c84600160601b876001600160801b03166119fc565b612348565b6123486001600160801b038616606086901b61293a565b90506123656123606001600160a01b038816836124f9565b612514565b915050611f82565b60006001600160a01b0384111561239b5761239684600160601b876001600160801b03166120e9565b6123b8565b6123b8606085901b6001600160801b038716808204910615150190565b905080866001600160a01b0316116123cf57600080fd5b612365816001600160a01b03881661288c565b6000826000036123f3575083611f82565b600160601b600160e01b03606085901b16821561249c5760006001600160a01b03871685612421828261295c565b925061242d908361293a565b0361246757600061243e8284612730565b90508281106124655761245b83896001600160a01b0316836120e9565b9350505050611f82565b505b61249382612488876124826001600160a01b038c168461293a565b906124f9565b808204910615150190565b92505050611f82565b60006001600160a01b038716856124b3828261295c565b92506124bf908361293a565b1480156124cb57508082115b6124d457600080fd5b60006124e0828461288c565b905061245b612360848a6001600160a01b0316846120e9565b6000826125068382612730565b91508110156122f557600080fd5b806001600160a01b038116811461252a57600080fd5b919050565b6001600160a01b038116811461254457600080fd5b50565b801515811461254457600080fd5b60008083601f84011261256757600080fd5b50813567ffffffffffffffff81111561257f57600080fd5b60208301915083602082850101111561259757600080fd5b9250929050565b60008060008060008060a087890312156125b757600080fd5b86356125c28161252f565b955060208701356125d281612547565b94506040870135935060608701356125e98161252f565b9250608087013567ffffffffffffffff81111561260557600080fd5b61261189828a01612555565b979a9699509497509295939492505050565b60006020828403121561263557600080fd5b8135611a988161252f565b80356001600160801b038116811461252a57600080fd5b60008060006060848603121561266c57600080fd5b83356126778161252f565b925061268560208501612640565b915061269360408501612640565b90509250925092565b6000602082840312156126ae57600080fd5b611a9882612640565b600080600080606085870312156126cd57600080fd5b84356126d88161252f565b93506126e660208601612640565b9250604085013567ffffffffffffffff81111561270257600080fd5b61270e87828801612555565b95989497509550505050565b634e487b7160e01b600052601160045260246000fd5b808201808211156122f5576122f561271a565b81810360008312801583831316838312821617156127635761276361271a565b5092915050565b808201828112600083128015821682158216171561278a5761278a61271a565b505092915050565b81835281816020850137506000828201602090810191909152601f909101601f19169091010190565b8481528360208201526060604082015260006127db606083018486612792565b9695505050505050565b6000600160ff1b82016127fa576127fa61271a565b5060000390565b6001600160801b038281168282160390808211156127635761276361271a565b600081600f0b6f7fffffffffffffffffffffffffffffff1981036128475761284761271a565b60000392915050565b6001600160801b038181168382160190808211156127635761276361271a565b62ffffff8281168282160390808211156127635761276361271a565b818103818111156122f5576122f561271a565b6000602082840312156128b157600080fd5b5051919050565b6000825160005b818110156128d957602081860181015185830152016128bf565b506000920191825250919050565b6000602082840312156128f957600080fd5b8151611a9881612547565b6001600160a01b038281168282160390808211156127635761276361271a565b634e487b7160e01b600052601260045260246000fd5b60008261295757634e487b7160e01b600052601260045260246000fd5b500490565b80820281158282048414176122f5576122f561271a56fea26469706673582212208e282ee879b6d6ef813a81d0e74cac5e2e0935c739eca51dff6e969907c2f4a764736f6c63430008180033a2646970667358221220154645584371ce5beac9bd7616d635013f6a83ad3ffaefa17b7b09b60c00f39064736f6c63430008180033",
  "devdoc": {
    "kind": "dev",
    "methods": {},
    "version": 1
  },
  "userdoc": {
    "kind": "user",
    "methods": {},
    "version": 1
  },
  "storageLayout": {
    "storage": [
      {
        "astId": 6801,
        "contract": "contracts/Factory.sol:Factory",
        "label": "pools",
        "offset": 0,
        "slot": "0",
        "type": "t_mapping(t_address,t_mapping(t_address,t_array(t_address)dyn_storage))"
      },
      {
        "astId": 6805,
        "contract": "contracts/Factory.sol:Factory",
        "label": "onlyPool",
        "offset": 0,
        "slot": "1",
        "type": "t_mapping(t_bytes32,t_address)"
      },
      {
        "astId": 6864,
        "contract": "contracts/Factory.sol:Factory",
        "label": "parameters",
        "offset": 0,
        "slot": "2",
        "type": "t_struct(Parameters)9628_storage"
      }
    ],
    "types": {
      "t_address": {
        "encoding": "inplace",
        "label": "address",
        "numberOfBytes": "20"
      },
      "t_array(t_address)dyn_storage": {
        "base": "t_address",
        "encoding": "dynamic_array",
        "label": "address[]",
        "numberOfBytes": "32"
      },
      "t_bytes32": {
        "encoding": "inplace",
        "label": "bytes32",
        "numberOfBytes": "32"
      },
      "t_int24": {
        "encoding": "inplace",
        "label": "int24",
        "numberOfBytes": "3"
      },
      "t_mapping(t_address,t_array(t_address)dyn_storage)": {
        "encoding": "mapping",
        "key": "t_address",
        "label": "mapping(address => address[])",
        "numberOfBytes": "32",
        "value": "t_array(t_address)dyn_storage"
      },
      "t_mapping(t_address,t_mapping(t_address,t_array(t_address)dyn_storage))": {
        "encoding": "mapping",
        "key": "t_address",
        "label": "mapping(address => mapping(address => address[]))",
        "numberOfBytes": "32",
        "value": "t_mapping(t_address,t_array(t_address)dyn_storage)"
      },
      "t_mapping(t_bytes32,t_address)": {
        "encoding": "mapping",
        "key": "t_bytes32",
        "label": "mapping(bytes32 => address)",
        "numberOfBytes": "32",
        "value": "t_address"
      },
      "t_struct(Parameters)9628_storage": {
        "encoding": "inplace",
        "label": "struct IFactory.Parameters",
        "members": [
          {
            "astId": 9617,
            "contract": "contracts/Factory.sol:Factory",
            "label": "factory",
            "offset": 0,
            "slot": "0",
            "type": "t_address"
          },
          {
            "astId": 9619,
            "contract": "contracts/Factory.sol:Factory",
            "label": "tokenA",
            "offset": 0,
            "slot": "1",
            "type": "t_address"
          },
          {
            "astId": 9621,
            "contract": "contracts/Factory.sol:Factory",
            "label": "tokenB",
            "offset": 0,
            "slot": "2",
            "type": "t_address"
          },
          {
            "astId": 9623,
            "contract": "contracts/Factory.sol:Factory",
            "label": "tickLower",
            "offset": 20,
            "slot": "2",
            "type": "t_int24"
          },
          {
            "astId": 9625,
            "contract": "contracts/Factory.sol:Factory",
            "label": "tickUpper",
            "offset": 23,
            "slot": "2",
            "type": "t_int24"
          },
          {
            "astId": 9627,
            "contract": "contracts/Factory.sol:Factory",
            "label": "fee",
            "offset": 26,
            "slot": "2",
            "type": "t_uint24"
          }
        ],
        "numberOfBytes": "96"
      },
      "t_uint24": {
        "encoding": "inplace",
        "label": "uint24",
        "numberOfBytes": "3"
      }
    }
  }
}