{
  "address": "0xDc64a140Aa3E981100a9becA4E685f962f0cF6C9",
  "abi": [
    {
      "inputs": [
        {
          "internalType": "int256",
          "name": "amount0Delta",
          "type": "int256"
        },
        {
          "internalType": "int256",
          "name": "amount1Delta",
          "type": "int256"
        },
        {
          "internalType": "bytes",
          "name": "data",
          "type": "bytes"
        }
      ],
      "name": "swapCallback",
      "outputs": [],
      "stateMutability": "nonpayable",
      "type": "function"
    },
    {
      "inputs": [
        {
          "internalType": "address",
          "name": "recipient",
          "type": "address"
        },
        {
          "internalType": "int256",
          "name": "amountSpecified",
          "type": "int256"
        },
        {
          "internalType": "uint160",
          "name": "sqrtPriceLimitX96",
          "type": "uint160"
        },
        {
          "internalType": "address",
          "name": "pool",
          "type": "address"
        },
        {
          "internalType": "address",
          "name": "token0",
          "type": "address"
        },
        {
          "internalType": "address",
          "name": "token1",
          "type": "address"
        }
      ],
      "name": "testSwap",
      "outputs": [
        {
          "internalType": "int256",
          "name": "amount0",
          "type": "int256"
        },
        {
          "internalType": "int256",
          "name": "amount1",
          "type": "int256"
        }
      ],
      "stateMutability": "nonpayable",
      "type": "function"
    }
  ],
  "transactionHash": "0x0364d602ad372549e8f855495958afdcbdbecf8d63356168d3a1e341f298b4e6",
  "args": [],
  "numDeployments": 1,
  "solcInputHash": "e6f3973e3c1460d2283c827658d8f7cd",
  "bytecode": "0x608060405234801561001057600080fd5b50610496806100206000396000f3fe608060405234801561001057600080fd5b50600436106100365760003560e01c8063272e6ea01461003b578063fa483e7214610067575b600080fd5b61004e610049366004610266565b61007c565b6040805192835260208301919091520160405180910390f35b61007a6100753660046102df565b61013b565b005b600080846001600160a01b031663128acb088960018a8a89896040516020016100bb9291906001600160a01b0392831681529116602082015260400190565b6040516020818303038152906040526040518663ffffffff1660e01b81526004016100ea95949392919061035f565b60408051808303816000875af1158015610108573d6000803e3d6000fd5b505050506040513d601f19601f8201168201806040525081019061012c91906103da565b90999098509650505050505050565b60008061014a838501856103fe565b9150915060008613156101ca5760405163a9059cbb60e01b8152336004820152602481018790526001600160a01b0383169063a9059cbb906044016020604051808303816000875af11580156101a4573d6000803e3d6000fd5b505050506040513d601f19601f820116820180604052508101906101c89190610437565b505b60008513156102465760405163a9059cbb60e01b8152336004820152602481018690526001600160a01b0382169063a9059cbb906044016020604051808303816000875af1158015610220573d6000803e3d6000fd5b505050506040513d601f19601f820116820180604052508101906102449190610437565b505b505050505050565b6001600160a01b038116811461026357600080fd5b50565b60008060008060008060c0878903121561027f57600080fd5b863561028a8161024e565b95506020870135945060408701356102a18161024e565b935060608701356102b18161024e565b925060808701356102c18161024e565b915060a08701356102d18161024e565b809150509295509295509295565b600080600080606085870312156102f557600080fd5b8435935060208501359250604085013567ffffffffffffffff8082111561031b57600080fd5b818701915087601f83011261032f57600080fd5b81358181111561033e57600080fd5b88602082850101111561035057600080fd5b95989497505060200194505050565b600060018060a01b03808816835260208715156020850152866040850152818616606085015260a06080850152845191508160a085015260005b828110156103b55785810182015185820160c001528101610399565b5050600060c0828501015260c0601f19601f8301168401019150509695505050505050565b600080604083850312156103ed57600080fd5b505080516020909101519092909150565b6000806040838503121561041157600080fd5b823561041c8161024e565b9150602083013561042c8161024e565b809150509250929050565b60006020828403121561044957600080fd5b8151801515811461045957600080fd5b939250505056fea2646970667358221220891b7faacf88fcf62419ae36fc3cc6ee18abc639c3019ca9ab40c2776e188fdc64736f6c63430008180033",
  "devdoc": {
    "kind": "dev",
    "methods": {},
    "version": 1
  },
  "userdoc": {
    "kind": "user",
    "methods": {},
    "version": 1
  },
  "storageLayout": {
    "storage": [],
    "types": null
  }
}