{
  "address": "0xCf7Ed3AccA5a467e9e704C703E8D87F634fB0Fc9",
  "abi": [
    {
      "anonymous": false,
      "inputs": [
        {
          "indexed": false,
          "internalType": "address",
          "name": "",
          "type": "address"
        },
        {
          "indexed": false,
          "internalType": "uint128",
          "name": "",
          "type": "uint128"
        },
        {
          "indexed": false,
          "internalType": "address",
          "name": "",
          "type": "address"
        },
        {
          "indexed": false,
          "internalType": "address",
          "name": "",
          "type": "address"
        },
        {
          "indexed": false,
          "internalType": "address",
          "name": "",
          "type": "address"
        }
      ],
      "name": "Mint",
      "type": "event"
    },
    {
      "inputs": [
        {
          "internalType": "uint128",
          "name": "amount",
          "type": "uint128"
        },
        {
          "internalType": "address",
          "name": "pool",
          "type": "address"
        }
      ],
      "name": "burn",
      "outputs": [
        {
          "internalType": "uint256",
          "name": "amount0",
          "type": "uint256"
        },
        {
          "internalType": "uint256",
          "name": "amount1",
          "type": "uint256"
        }
      ],
      "stateMutability": "nonpayable",
      "type": "function"
    },
    {
      "inputs": [
        {
          "internalType": "address",
          "name": "recipient",
          "type": "address"
        },
        {
          "internalType": "address",
          "name": "pool",
          "type": "address"
        }
      ],
      "name": "collect",
      "outputs": [
        {
          "internalType": "uint256",
          "name": "amount0",
          "type": "uint256"
        },
        {
          "internalType": "uint256",
          "name": "amount1",
          "type": "uint256"
        }
      ],
      "stateMutability": "nonpayable",
      "type": "function"
    },
    {
      "inputs": [
        {
          "internalType": "address",
          "name": "recipient",
          "type": "address"
        },
        {
          "internalType": "uint128",
          "name": "amount",
          "type": "uint128"
        },
        {
          "internalType": "address",
          "name": "pool",
          "type": "address"
        },
        {
          "internalType": "address",
          "name": "tokenA",
          "type": "address"
        },
        {
          "internalType": "address",
          "name": "tokenB",
          "type": "address"
        }
      ],
      "name": "mint",
      "outputs": [
        {
          "internalType": "uint256",
          "name": "amount0",
          "type": "uint256"
        },
        {
          "internalType": "uint256",
          "name": "amount1",
          "type": "uint256"
        }
      ],
      "stateMutability": "nonpayable",
      "type": "function"
    },
    {
      "inputs": [
        {
          "internalType": "uint256",
          "name": "amount0Owed",
          "type": "uint256"
        },
        {
          "internalType": "uint256",
          "name": "amount1Owed",
          "type": "uint256"
        },
        {
          "internalType": "bytes",
          "name": "data",
          "type": "bytes"
        }
      ],
      "name": "mintCallback",
      "outputs": [],
      "stateMutability": "nonpayable",
      "type": "function"
    }
  ],
  "transactionHash": "0x76587aee8df50c932f243c0a5efc4415acfed1dde264c82835f61e661a17ad07",
  "args": [],
  "numDeployments": 1,
  "solcInputHash": "31bb6983f93ca5e6a7dbf66a48b1cd56",
  "bytecode": "0x608060405234801561001057600080fd5b506107a9806100206000396000f3fe608060405234801561001057600080fd5b506004361061004c5760003560e01c8063758ff21d146100515780639f382e9b1461007d578063a12ef25e14610092578063d1cec96b146100a5575b600080fd5b61006461005f3660046104ec565b6100b8565b6040805192835260208301919091520160405180910390f35b61009061008b36600461055d565b6101e8565b005b6100646100a03660046105dd565b6102f6565b6100646100b3366004610616565b61040c565b604080516001600160a01b0387811682526001600160801b038716602083015285811682840152848116606083015283166080820152905160009182917f493ee2c6c1373370c88fcac1965f77f9c21537e199574375dc33abe85435fa939181900360a00190a160008061012c868661048e565b91509150866001600160a01b03166392f026ad8a8a85856040516020016101699291906001600160a01b0392831681529116602082015260400190565b6040516020818303038152906040526040518463ffffffff1660e01b815260040161019693929190610634565b60408051808303816000875af11580156101b4573d6000803e3d6000fd5b505050506040513d601f19601f820116820180604052508101906101d891906106a3565b909a909950975050505050505050565b6000806101f7838501856105dd565b909250905085156102755760405163a9059cbb60e01b8152336004820152602481018790526001600160a01b0383169063a9059cbb906044016020604051808303816000875af115801561024f573d6000803e3d6000fd5b505050506040513d601f19601f8201168201806040525081019061027391906106c7565b505b84156102ee5760405163a9059cbb60e01b8152336004820152602481018690526001600160a01b0382169063a9059cbb906044016020604051808303816000875af11580156102c8573d6000803e3d6000fd5b505050506040513d601f19601f820116820180604052508101906102ec91906106c7565b505b505050505050565b6040516316c1973960e01b81523060048201526000908190819081906001600160a01b038616906316c197399060240160a060405180830381865afa158015610343573d6000803e3d6000fd5b505050506040513d601f19601f8201168201806040525081019061036791906106f0565b6040516360d49d5360e01b81526001600160a01b038c811660048301526001600160801b0380851660248401528316604483015292975090955090891693506360d49d539250606401905060408051808303816000875af11580156103d0573d6000803e3d6000fd5b505050506040513d601f19601f820116820180604052508101906103f49190610744565b6001600160801b039182169891169650945050505050565b6040516390bc169360e01b81526001600160801b038316600482015260009081906001600160a01b038416906390bc16939060240160408051808303816000875af115801561045f573d6000803e3d6000fd5b505050506040513d601f19601f8201168201806040525081019061048391906106a3565b909590945092505050565b600080826001600160a01b0316846001600160a01b0316106104b15782846104b4565b83835b915091509250929050565b6001600160a01b03811681146104d457600080fd5b50565b6001600160801b03811681146104d457600080fd5b600080600080600060a0868803121561050457600080fd5b853561050f816104bf565b9450602086013561051f816104d7565b9350604086013561052f816104bf565b9250606086013561053f816104bf565b9150608086013561054f816104bf565b809150509295509295909350565b6000806000806060858703121561057357600080fd5b8435935060208501359250604085013567ffffffffffffffff8082111561059957600080fd5b818701915087601f8301126105ad57600080fd5b8135818111156105bc57600080fd5b8860208285010111156105ce57600080fd5b95989497505060200194505050565b600080604083850312156105f057600080fd5b82356105fb816104bf565b9150602083013561060b816104bf565b809150509250929050565b6000806040838503121561062957600080fd5b82356105fb816104d7565b60018060a01b0384168152600060206001600160801b038516602084015260606040840152835180606085015260005b8181101561068057858101830151858201608001528201610664565b506000608082860101526080601f19601f83011685010192505050949350505050565b600080604083850312156106b657600080fd5b505080516020909101519092909150565b6000602082840312156106d957600080fd5b815180151581146106e957600080fd5b9392505050565b600080600080600060a0868803121561070857600080fd5b8551610713816104d7565b8095505060208601519350604086015192506060860151610733816104d7565b608087015190925061054f816104d7565b6000806040838503121561075757600080fd5b8251610762816104d7565b602084015190925061060b816104d756fea2646970667358221220b3b502b8d054152715e04f427a43cf6c88e95b22dffdbf8e52eab88a1f56fe3d64736f6c63430008180033",
  "devdoc": {
    "kind": "dev",
    "methods": {},
    "version": 1
  },
  "userdoc": {
    "kind": "user",
    "methods": {},
    "version": 1
  },
  "storageLayout": {
    "storage": [],
    "types": null
  }
}