{
  "address": "0x0165878A594ca255338adfa4d48449f69242Eb8F",
  "abi": [
    {
      "inputs": [
        {
          "internalType": "address",
          "name": "_addr",
          "type": "address"
        }
      ],
      "stateMutability": "nonpayable",
      "type": "constructor"
    },
    {
      "anonymous": false,
      "inputs": [
        {
          "indexed": true,
          "internalType": "address",
          "name": "sender",
          "type": "address"
        },
        {
          "indexed": false,
          "internalType": "bool",
          "name": "zeroForOne",
          "type": "bool"
        },
        {
          "indexed": false,
          "internalType": "uint256",
          "name": "amountIn",
          "type": "uint256"
        },
        {
          "indexed": false,
          "internalType": "uint256",
          "name": "amountInRemaining",
          "type": "uint256"
        },
        {
          "indexed": false,
          "internalType": "uint256",
          "name": "amountOut",
          "type": "uint256"
        }
      ],
      "name": "Swap",
      "type": "event"
    },
    {
      "inputs": [
        {
          "components": [
            {
              "internalType": "address",
              "name": "tokenIn",
              "type": "address"
            },
            {
              "internalType": "address",
              "name": "tokenOut",
              "type": "address"
            },
            {
              "internalType": "uint32[]",
              "name": "indexPath",
              "type": "uint32[]"
            },
            {
              "internalType": "address",
              "name": "recipient",
              "type": "address"
            },
            {
              "internalType": "uint256",
              "name": "deadline",
              "type": "uint256"
            },
            {
              "internalType": "uint256",
              "name": "amountIn",
              "type": "uint256"
            },
            {
              "internalType": "uint256",
              "name": "amountOutMinimum",
              "type": "uint256"
            },
            {
              "internalType": "uint160",
              "name": "sqrtPriceLimitX96",
              "type": "uint160"
            }
          ],
          "internalType": "struct ISwapRouter.ExactInputParams",
          "name": "params",
          "type": "tuple"
        }
      ],
      "name": "exactInput",
      "outputs": [
        {
          "internalType": "uint256",
          "name": "amountOut",
          "type": "uint256"
        }
      ],
      "stateMutability": "payable",
      "type": "function"
    },
    {
      "inputs": [
        {
          "components": [
            {
              "internalType": "address",
              "name": "tokenIn",
              "type": "address"
            },
            {
              "internalType": "address",
              "name": "tokenOut",
              "type": "address"
            },
            {
              "internalType": "uint32[]",
              "name": "indexPath",
              "type": "uint32[]"
            },
            {
              "internalType": "address",
              "name": "recipient",
              "type": "address"
            },
            {
              "internalType": "uint256",
              "name": "deadline",
              "type": "uint256"
            },
            {
              "internalType": "uint256",
              "name": "amountOut",
              "type": "uint256"
            },
            {
              "internalType": "uint256",
              "name": "amountInMaximum",
              "type": "uint256"
            },
            {
              "internalType": "uint160",
              "name": "sqrtPriceLimitX96",
              "type": "uint160"
            }
          ],
          "internalType": "struct ISwapRouter.ExactOutputParams",
          "name": "params",
          "type": "tuple"
        }
      ],
      "name": "exactOutput",
      "outputs": [
        {
          "internalType": "uint256",
          "name": "amountIn",
          "type": "uint256"
        }
      ],
      "stateMutability": "payable",
      "type": "function"
    },
    {
      "inputs": [],
      "name": "insPoolManager",
      "outputs": [
        {
          "internalType": "contract IPoolManager",
          "name": "",
          "type": "address"
        }
      ],
      "stateMutability": "view",
      "type": "function"
    },
    {
      "inputs": [
        {
          "components": [
            {
              "internalType": "address",
              "name": "tokenIn",
              "type": "address"
            },
            {
              "internalType": "address",
              "name": "tokenOut",
              "type": "address"
            },
            {
              "internalType": "uint32[]",
              "name": "indexPath",
              "type": "uint32[]"
            },
            {
              "internalType": "uint256",
              "name": "amountIn",
              "type": "uint256"
            },
            {
              "internalType": "uint160",
              "name": "sqrtPriceLimitX96",
              "type": "uint160"
            }
          ],
          "internalType": "struct ISwapRouter.QuoteExactInputParams",
          "name": "params",
          "type": "tuple"
        }
      ],
      "name": "quoteExactInput",
      "outputs": [
        {
          "internalType": "uint256",
          "name": "amountOut",
          "type": "uint256"
        }
      ],
      "stateMutability": "nonpayable",
      "type": "function"
    },
    {
      "inputs": [
        {
          "components": [
            {
              "internalType": "address",
              "name": "tokenIn",
              "type": "address"
            },
            {
              "internalType": "address",
              "name": "tokenOut",
              "type": "address"
            },
            {
              "internalType": "uint32[]",
              "name": "indexPath",
              "type": "uint32[]"
            },
            {
              "internalType": "uint256",
              "name": "amountOut",
              "type": "uint256"
            },
            {
              "internalType": "uint160",
              "name": "sqrtPriceLimitX96",
              "type": "uint160"
            }
          ],
          "internalType": "struct ISwapRouter.QuoteExactOutputParams",
          "name": "params",
          "type": "tuple"
        }
      ],
      "name": "quoteExactOutput",
      "outputs": [
        {
          "internalType": "uint256",
          "name": "amountIn",
          "type": "uint256"
        }
      ],
      "stateMutability": "nonpayable",
      "type": "function"
    },
    {
      "inputs": [
        {
          "internalType": "int256",
          "name": "amount0Delta",
          "type": "int256"
        },
        {
          "internalType": "int256",
          "name": "amount1Delta",
          "type": "int256"
        },
        {
          "internalType": "bytes",
          "name": "data",
          "type": "bytes"
        }
      ],
      "name": "swapCallback",
      "outputs": [],
      "stateMutability": "nonpayable",
      "type": "function"
    },
    {
      "inputs": [
        {
          "internalType": "contract IPool",
          "name": "pool",
          "type": "address"
        },
        {
          "internalType": "address",
          "name": "recipient",
          "type": "address"
        },
        {
          "internalType": "bool",
          "name": "zeroForOne",
          "type": "bool"
        },
        {
          "internalType": "int256",
          "name": "amountSpecified",
          "type": "int256"
        },
        {
          "internalType": "uint160",
          "name": "sqrtPriceLimitX96",
          "type": "uint160"
        },
        {
          "internalType": "bytes",
          "name": "data",
          "type": "bytes"
        }
      ],
      "name": "swapInPool",
      "outputs": [
        {
          "internalType": "int256",
          "name": "amount0",
          "type": "int256"
        },
        {
          "internalType": "int256",
          "name": "amount1",
          "type": "int256"
        }
      ],
      "stateMutability": "nonpayable",
      "type": "function"
    }
  ],
  "transactionHash": "0x82db3eaa55ae8c921122f840a88f53d51bd393edca3ea2dff7d2eaaa54097d3f",
  "args": [
    "0x5FC8d32690cc91D4c39d9d3abcBD16989F875707"
  ],
  "numDeployments": 1,
  "solcInputHash": "31bb6983f93ca5e6a7dbf66a48b1cd56",
  "bytecode": "0x608060405234801561001057600080fd5b5060405161169938038061169983398101604081905261002f91610054565b600080546001600160a01b0319166001600160a01b0392909216919091179055610084565b60006020828403121561006657600080fd5b81516001600160a01b038116811461007d57600080fd5b9392505050565b611606806100936000396000f3fe6080604052600436106100705760003560e01c80636c207ad01161004e5780636c207ad014610115578063a8a590fd14610128578063ae5ab5e11461013b578063fa483e721461015b57600080fd5b806309c8fcd4146100755780633439aade146100b2578063393dd1da146100e0575b600080fd5b34801561008157600080fd5b50600054610095906001600160a01b031681565b6040516001600160a01b0390911681526020015b60405180910390f35b3480156100be57600080fd5b506100d26100cd366004610f16565b61017d565b6040519081526020016100a9565b3480156100ec57600080fd5b506101006100fb366004610fc2565b6102bb565b604080519283526020830191909152016100a9565b6100d261012336600461106d565b610387565b6100d261013636600461106d565b610798565b34801561014757600080fd5b506100d2610156366004610f16565b610bbb565b34801561016757600080fd5b5061017b6101763660046110a2565b610c89565b005b6040805161010081019091526000903090636c207ad090806101a260208701876110f5565b6001600160a01b031681526020018560200160208101906101c391906110f5565b6001600160a01b031681526020016101de6040870187611119565b808060200260200160405190810160405280939291908181526020018383602002808284376000920182905250938552505050602082015260400161022542610e10611179565b81526060808701356020830152600060408301520161024a60a08701608088016110f5565b6001600160a01b03168152506040518263ffffffff1660e01b81526004016102729190611255565b6020604051808303816000875af1158015610291573d6000803e3d6000fd5b505050506040513d601f19601f820116820180604052508101906102b59190611268565b92915050565b600080886001600160a01b031663128acb088989898989896040518763ffffffff1660e01b81526004016102f496959493929190611281565b60408051808303816000875af192505050801561032e575060408051601f3d908101601f1916820190925261032b918101906112de565b60015b610375573d80801561035c576040519150601f19603f3d011682016040523d82523d6000602084013e610361565b606091505b5061036b81610e5d565b925092505061037b565b90925090505b97509795505050505050565b600060a08201358161039f60408501602086016110f5565b6001600160a01b03166103b560208601866110f5565b6001600160a01b031610905060005b6103d16040860186611119565b90508163ffffffff1610156106f857600080546001600160a01b03166371c54fc96103ff60208901896110f5565b61040f60408a0160208b016110f5565b61041c60408b018b611119565b8763ffffffff1681811061043257610432611302565b90506020020160208101906104479190611331565b6040518463ffffffff1660e01b81526004016104659392919061134c565b602060405180830381865afa158015610482573d6000803e3d6000fd5b505050506040513d601f19601f820116820180604052508101906104a69190611375565b90506001600160a01b0381166105225760405162461bcd60e51b815260206004820152603660248201527f53576170526f757465723a6578616374496e70757420706f6f6c416464722063604482015275030b73737ba1031329030b2323932b9b9903d32b937960551b60648201526084015b60405180910390fd5b80600061053260208901896110f5565b61054260408a0160208b016110f5565b61054f60408b018b611119565b8763ffffffff1681811061056557610565611302565b905060200201602081019061057a9190611331565b600061058c60808d0160608e016110f5565b6001600160a01b0316146105a057336105a3565b60005b604080516001600160a01b0395861660208201529385169084015263ffffffff909116606083015291909116608082015260a00160408051601f1981840301815291905290506000803063393dd1da8561060360808e0160608f016110f5565b8a8c8f60e001602081019061061891906110f5565b896040518763ffffffff1660e01b815260040161063a969594939291906113e2565b60408051808303816000875af1158015610658573d6000803e3d6000fd5b505050506040513d601f19601f8201168201806040525081019061067c91906112de565b9150915086156106ac576106908289611431565b975061069b81611444565b6106a5908a611179565b98506106ce565b6106b68189611431565b97506106c182611444565b6106cb908a611179565b98505b876000036106e05750505050506106f8565b505050505080806106f090611460565b9150506103c4565b508360c001358310156107415760405162461bcd60e51b81526020600482015260116024820152701cdb1a5c1c1859d948195e18d959591959607a1b6044820152606401610519565b60408051821515815260a086013560208201529081018390526060810184905233907f176648f1f11cda284c124490086be42a926ddf0ae887ebe7b1d6b337d8942756906080015b60405180910390a25050919050565b600060a0820135816107b060408501602086016110f5565b6001600160a01b03166107c660208601866110f5565b6001600160a01b031610905060005b6107e26040860186611119565b90508163ffffffff161015610b0b57600080546001600160a01b03166371c54fc961081060208901896110f5565b61082060408a0160208b016110f5565b61082d60408b018b611119565b8763ffffffff1681811061084357610843611302565b90506020020160208101906108589190611331565b6040518463ffffffff1660e01b81526004016108769392919061134c565b602060405180830381865afa158015610893573d6000803e3d6000fd5b505050506040513d601f19601f820116820180604052508101906108b79190611375565b90506001600160a01b03811661092d5760405162461bcd60e51b815260206004820152603560248201527f53576170526f757465723a6578616374496e70757420706f6f6c416464722063604482015274616e6e6f742062652061646472657373207a65726f60581b6064820152608401610519565b80600061093d60208901896110f5565b61094d60408a0160208b016110f5565b61095a60408b018b611119565b8763ffffffff1681811061097057610970611302565b90506020020160208101906109859190611331565b600061099760808d0160608e016110f5565b6001600160a01b0316146109ab57336109ae565b60005b604080516001600160a01b0395861660208201529385169084015263ffffffff909116606083015291909116608082015260a00160408051601f1981840301815291905290506000803063393dd1da85610a0e60808e0160608f016110f5565b8a610a188d611444565b8f60e0016020810190610a2b91906110f5565b896040518763ffffffff1660e01b8152600401610a4d969594939291906113e2565b60408051808303816000875af1158015610a6b573d6000803e3d6000fd5b505050506040513d601f19601f82011682018060405250810190610a8f91906112de565b915091508615610abf57610aa281611444565b610aac9089611431565b9750610ab8828a611179565b9850610ae1565b610ac9818a611179565b9850610ad482611444565b610ade9089611431565b97505b87600003610af3575050505050610b0b565b50505050508080610b0390611460565b9150506107d5565b508360c00135831115610b545760405162461bcd60e51b81526020600482015260116024820152701cdb1a5c1c1859d948195e18d959591959607a1b6044820152606401610519565b610b6460808501606086016110f5565b60408051831515815260a08701356020820152908101849052606081018590526001600160a01b0391909116907f176648f1f11cda284c124490086be42a926ddf0ae887ebe7b1d6b337d894275690608001610789565b604080516101008101909152600090309063a8a590fd9080610be060208701876110f5565b6001600160a01b03168152602001856020016020810190610c0191906110f5565b6001600160a01b03168152602001610c1c6040870187611119565b8080602002602001604051908101604052809392919081815260200183836020028082843760009201829052509385525050506020820152604001610c6342610e10611179565b8152606080870135602083015260001960408301520161024a60a08701608088016110f5565b6000808080610c9a85870187611483565b600080546040516371c54fc960e01b81529599509397509195509350916001600160a01b03909116906371c54fc990610cdb9088908890889060040161134c565b602060405180830381865afa158015610cf8573d6000803e3d6000fd5b505050506040513d601f19601f82011682018060405250810190610d1c9190611375565b9050336001600160a01b03821614610d9c5760405162461bcd60e51b815260206004820152603c60248201527f53576170526f757465723a7377617043616c6c6261636b206d73672e73656e6460448201527f6572206e6f7420657175616c20746f20706f6f6c2061646472657373000000006064820152608401610519565b6000808a13610dab5788610dad565b895b90506001600160a01b038316610dce576040518a8152896020820152604081fd5b8015610e51576040516323b872dd60e01b81526001600160a01b0384811660048301528381166024830152604482018390528716906323b872dd906064016020604051808303816000875af1158015610e2b573d6000803e3d6000fd5b505050506040513d601f19601f82011682018060405250810190610e4f91906114dd565b505b50505050505050505050565b6000808251604014610ee157604483511015610eae5760405162461bcd60e51b815260206004820152601060248201526f2ab732bc3832b1ba32b21032b93937b960811b6044820152606401610519565b60048301925082806020019051810190610ec89190611510565b60405162461bcd60e51b815260040161051991906115bd565b82806020019051810190610ef591906112de565b91509150915091565b600060a08284031215610f1057600080fd5b50919050565b600060208284031215610f2857600080fd5b813567ffffffffffffffff811115610f3f57600080fd5b610f4b84828501610efe565b949350505050565b6001600160a01b0381168114610f6857600080fd5b50565b8015158114610f6857600080fd5b60008083601f840112610f8b57600080fd5b50813567ffffffffffffffff811115610fa357600080fd5b602083019150836020828501011115610fbb57600080fd5b9250929050565b600080600080600080600060c0888a031215610fdd57600080fd5b8735610fe881610f53565b96506020880135610ff881610f53565b9550604088013561100881610f6b565b945060608801359350608088013561101f81610f53565b925060a088013567ffffffffffffffff81111561103b57600080fd5b6110478a828b01610f79565b989b979a50959850939692959293505050565b60006101008284031215610f1057600080fd5b60006020828403121561107f57600080fd5b813567ffffffffffffffff81111561109657600080fd5b610f4b8482850161105a565b600080600080606085870312156110b857600080fd5b8435935060208501359250604085013567ffffffffffffffff8111156110dd57600080fd5b6110e987828801610f79565b95989497509550505050565b60006020828403121561110757600080fd5b813561111281610f53565b9392505050565b6000808335601e1984360301811261113057600080fd5b83018035915067ffffffffffffffff82111561114b57600080fd5b6020019150600581901b3603821315610fbb57600080fd5b634e487b7160e01b600052601160045260246000fd5b808201808211156102b5576102b5611163565b80516001600160a01b039081168352602080830151909116818401526040808301516101009185018290528051918501829052600092610120860192918101918491905b808310156111f657835163ffffffff1685529381019392810192600192909201916111d0565b50505050606083015161121460608601826001600160a01b03169052565b506080830151608085015260a083015160a085015260c083015160c085015260e083015161124d60e08601826001600160a01b03169052565b509392505050565b602081526000611112602083018461118c565b60006020828403121561127a57600080fd5b5051919050565b6001600160a01b0387811682528615156020830152604082018690528416606082015260a06080820181905281018290526000828460c0840137600060c0848401015260c0601f19601f8501168301019050979650505050505050565b600080604083850312156112f157600080fd5b505080516020909101519092909150565b634e487b7160e01b600052603260045260246000fd5b803563ffffffff8116811461132c57600080fd5b919050565b60006020828403121561134357600080fd5b61111282611318565b6001600160a01b03938416815291909216602082015263ffffffff909116604082015260600190565b60006020828403121561138757600080fd5b815161111281610f53565b60005b838110156113ad578181015183820152602001611395565b50506000910152565b600081518084526113ce816020860160208601611392565b601f01601f19169290920160200192915050565b6001600160a01b03878116825286811660208301528515156040830152606082018590528316608082015260c060a08201819052600090611425908301846113b6565b98975050505050505050565b818103818111156102b5576102b5611163565b6000600160ff1b820161145957611459611163565b5060000390565b600063ffffffff80831681810361147957611479611163565b6001019392505050565b6000806000806080858703121561149957600080fd5b84356114a481610f53565b935060208501356114b481610f53565b92506114c260408601611318565b915060608501356114d281610f53565b939692955090935050565b6000602082840312156114ef57600080fd5b815161111281610f6b565b634e487b7160e01b600052604160045260246000fd5b60006020828403121561152257600080fd5b815167ffffffffffffffff8082111561153a57600080fd5b818401915084601f83011261154e57600080fd5b815181811115611560576115606114fa565b604051601f8201601f19908116603f01168101908382118183101715611588576115886114fa565b816040528281528760208487010111156115a157600080fd5b6115b2836020830160208801611392565b979650505050505050565b60208152600061111260208301846113b656fea2646970667358221220af8fb1094c98cc3e8fede108116fe1d360fc22c292d692bf9a1e0eeed088ba1e64736f6c63430008180033",
  "devdoc": {
    "kind": "dev",
    "methods": {},
    "version": 1
  },
  "userdoc": {
    "kind": "user",
    "methods": {},
    "version": 1
  },
  "storageLayout": {
    "storage": [
      {
        "astId": 8836,
        "contract": "contracts/SwapRouter.sol:SwapRouter",
        "label": "insPoolManager",
        "offset": 0,
        "slot": "0",
        "type": "t_contract(IPoolManager)9930"
      }
    ],
    "types": {
      "t_contract(IPoolManager)9930": {
        "encoding": "inplace",
        "label": "contract IPoolManager",
        "numberOfBytes": "20"
      }
    }
  }
}